{
	"data": {
		"bytecode": {
			"linkReferences": {},
			"object": "608060405234801561001057600080fd5b5061055c806100206000396000f3fe608060405234801561001057600080fd5b506004361061004c5760003560e01c806326121ff01461005157806340dcbb081461005b57806371e5ee5f14610077578063baf71609146100a7575b600080fd5b6100596100d7565b005b610075600480360381019061007091906101d4565b610127565b005b610091600480360381019061008c9190610257565b61012b565b60405161009e9190610293565b60405180910390f35b6100c160048036038101906100bc91906103fd565b61014f565b6040516100ce9190610504565b60405180910390f35b6100f7600060016002600060018152602001908152602001600020610156565b60006002600060018152602001908152602001600020905060006040518060200160405280600081525090505050565b5050565b6000818154811061013b57600080fd5b906000526020600020016000915090505481565b6060919050565b505050565b6000604051905090565b600080fd5b600080fd5b600080fd5b600080fd5b600080fd5b60008083601f8401126101945761019361016f565b5b8235905067ffffffffffffffff8111156101b1576101b0610174565b5b6020830191508360208202830111156101cd576101cc610179565b5b9250929050565b600080602083850312156101eb576101ea610165565b5b600083013567ffffffffffffffff8111156102095761020861016a565b5b6102158582860161017e565b92509250509250929050565b6000819050919050565b61023481610221565b811461023f57600080fd5b50565b6000813590506102518161022b565b92915050565b60006020828403121561026d5761026c610165565b5b600061027b84828501610242565b91505092915050565b61028d81610221565b82525050565b60006020820190506102a86000830184610284565b92915050565b6000601f19601f8301169050919050565b7f4e487b7100000000000000000000000000000000000000000000000000000000600052604160045260246000fd5b6102f7826102ae565b810181811067ffffffffffffffff82111715610316576103156102bf565b5b80604052505050565b600061032961015b565b905061033582826102ee565b919050565b600067ffffffffffffffff821115610355576103546102bf565b5b602082029050602081019050919050565b60006103796103748461033a565b61031f565b9050808382526020820190506020840283018581111561039c5761039b610179565b5b835b818110156103c557806103b18882610242565b84526020840193505060208101905061039e565b5050509392505050565b600082601f8301126103e4576103e361016f565b5b81356103f4848260208601610366565b91505092915050565b60006020828403121561041357610412610165565b5b600082013567ffffffffffffffff8111156104315761043061016a565b5b61043d848285016103cf565b91505092915050565b600081519050919050565b600082825260208201905092915050565b6000819050602082019050919050565b61047b81610221565b82525050565b600061048d8383610472565b60208301905092915050565b6000602082019050919050565b60006104b182610446565b6104bb8185610451565b93506104c683610462565b8060005b838110156104f75781516104de8882610481565b97506104e983610499565b9250506001810190506104ca565b5085935050505092915050565b6000602082019050818103600083015261051e81846104a6565b90509291505056fea264697066735822122050241a0cabfd296b2182a4dfa4feb79b65b7b19a3c789146177742381cc5302e64736f6c634300080a0033",
			"opcodes": "PUSH1 0x80 PUSH1 0x40 MSTORE CALLVALUE DUP1 ISZERO PUSH2 0x10 JUMPI PUSH1 0x0 DUP1 REVERT JUMPDEST POP PUSH2 0x55C DUP1 PUSH2 0x20 PUSH1 0x0 CODECOPY PUSH1 0x0 RETURN INVALID PUSH1 0x80 PUSH1 0x40 MSTORE CALLVALUE DUP1 ISZERO PUSH2 0x10 JUMPI PUSH1 0x0 DUP1 REVERT JUMPDEST POP PUSH1 0x4 CALLDATASIZE LT PUSH2 0x4C JUMPI PUSH1 0x0 CALLDATALOAD PUSH1 0xE0 SHR DUP1 PUSH4 0x26121FF0 EQ PUSH2 0x51 JUMPI DUP1 PUSH4 0x40DCBB08 EQ PUSH2 0x5B JUMPI DUP1 PUSH4 0x71E5EE5F EQ PUSH2 0x77 JUMPI DUP1 PUSH4 0xBAF71609 EQ PUSH2 0xA7 JUMPI JUMPDEST PUSH1 0x0 DUP1 REVERT JUMPDEST PUSH2 0x59 PUSH2 0xD7 JUMP JUMPDEST STOP JUMPDEST PUSH2 0x75 PUSH1 0x4 DUP1 CALLDATASIZE SUB DUP2 ADD SWAP1 PUSH2 0x70 SWAP2 SWAP1 PUSH2 0x1D4 JUMP JUMPDEST PUSH2 0x127 JUMP JUMPDEST STOP JUMPDEST PUSH2 0x91 PUSH1 0x4 DUP1 CALLDATASIZE SUB DUP2 ADD SWAP1 PUSH2 0x8C SWAP2 SWAP1 PUSH2 0x257 JUMP JUMPDEST PUSH2 0x12B JUMP JUMPDEST PUSH1 0x40 MLOAD PUSH2 0x9E SWAP2 SWAP1 PUSH2 0x293 JUMP JUMPDEST PUSH1 0x40 MLOAD DUP1 SWAP2 SUB SWAP1 RETURN JUMPDEST PUSH2 0xC1 PUSH1 0x4 DUP1 CALLDATASIZE SUB DUP2 ADD SWAP1 PUSH2 0xBC SWAP2 SWAP1 PUSH2 0x3FD JUMP JUMPDEST PUSH2 0x14F JUMP JUMPDEST PUSH1 0x40 MLOAD PUSH2 0xCE SWAP2 SWAP1 PUSH2 0x504 JUMP JUMPDEST PUSH1 0x40 MLOAD DUP1 SWAP2 SUB SWAP1 RETURN JUMPDEST PUSH2 0xF7 PUSH1 0x0 PUSH1 0x1 PUSH1 0x2 PUSH1 0x0 PUSH1 0x1 DUP2 MSTORE PUSH1 0x20 ADD SWAP1 DUP2 MSTORE PUSH1 0x20 ADD PUSH1 0x0 KECCAK256 PUSH2 0x156 JUMP JUMPDEST PUSH1 0x0 PUSH1 0x2 PUSH1 0x0 PUSH1 0x1 DUP2 MSTORE PUSH1 0x20 ADD SWAP1 DUP2 MSTORE PUSH1 0x20 ADD PUSH1 0x0 KECCAK256 SWAP1 POP PUSH1 0x0 PUSH1 0x40 MLOAD DUP1 PUSH1 0x20 ADD PUSH1 0x40 MSTORE DUP1 PUSH1 0x0 DUP2 MSTORE POP SWAP1 POP POP POP JUMP JUMPDEST POP POP JUMP JUMPDEST PUSH1 0x0 DUP2 DUP2 SLOAD DUP2 LT PUSH2 0x13B JUMPI PUSH1 0x0 DUP1 REVERT JUMPDEST SWAP1 PUSH1 0x0 MSTORE PUSH1 0x20 PUSH1 0x0 KECCAK256 ADD PUSH1 0x0 SWAP2 POP SWAP1 POP SLOAD DUP2 JUMP JUMPDEST PUSH1 0x60 SWAP2 SWAP1 POP JUMP JUMPDEST POP POP POP JUMP JUMPDEST PUSH1 0x0 PUSH1 0x40 MLOAD SWAP1 POP SWAP1 JUMP JUMPDEST PUSH1 0x0 DUP1 REVERT JUMPDEST PUSH1 0x0 DUP1 REVERT JUMPDEST PUSH1 0x0 DUP1 REVERT JUMPDEST PUSH1 0x0 DUP1 REVERT JUMPDEST PUSH1 0x0 DUP1 REVERT JUMPDEST PUSH1 0x0 DUP1 DUP4 PUSH1 0x1F DUP5 ADD SLT PUSH2 0x194 JUMPI PUSH2 0x193 PUSH2 0x16F JUMP JUMPDEST JUMPDEST DUP3 CALLDATALOAD SWAP1 POP PUSH8 0xFFFFFFFFFFFFFFFF DUP2 GT ISZERO PUSH2 0x1B1 JUMPI PUSH2 0x1B0 PUSH2 0x174 JUMP JUMPDEST JUMPDEST PUSH1 0x20 DUP4 ADD SWAP2 POP DUP4 PUSH1 0x20 DUP3 MUL DUP4 ADD GT ISZERO PUSH2 0x1CD JUMPI PUSH2 0x1CC PUSH2 0x179 JUMP JUMPDEST JUMPDEST SWAP3 POP SWAP3 SWAP1 POP JUMP JUMPDEST PUSH1 0x0 DUP1 PUSH1 0x20 DUP4 DUP6 SUB SLT ISZERO PUSH2 0x1EB JUMPI PUSH2 0x1EA PUSH2 0x165 JUMP JUMPDEST JUMPDEST PUSH1 0x0 DUP4 ADD CALLDATALOAD PUSH8 0xFFFFFFFFFFFFFFFF DUP2 GT ISZERO PUSH2 0x209 JUMPI PUSH2 0x208 PUSH2 0x16A JUMP JUMPDEST JUMPDEST PUSH2 0x215 DUP6 DUP3 DUP7 ADD PUSH2 0x17E JUMP JUMPDEST SWAP3 POP SWAP3 POP POP SWAP3 POP SWAP3 SWAP1 POP JUMP JUMPDEST PUSH1 0x0 DUP2 SWAP1 POP SWAP2 SWAP1 POP JUMP JUMPDEST PUSH2 0x234 DUP2 PUSH2 0x221 JUMP JUMPDEST DUP2 EQ PUSH2 0x23F JUMPI PUSH1 0x0 DUP1 REVERT JUMPDEST POP JUMP JUMPDEST PUSH1 0x0 DUP2 CALLDATALOAD SWAP1 POP PUSH2 0x251 DUP2 PUSH2 0x22B JUMP JUMPDEST SWAP3 SWAP2 POP POP JUMP JUMPDEST PUSH1 0x0 PUSH1 0x20 DUP3 DUP5 SUB SLT ISZERO PUSH2 0x26D JUMPI PUSH2 0x26C PUSH2 0x165 JUMP JUMPDEST JUMPDEST PUSH1 0x0 PUSH2 0x27B DUP5 DUP3 DUP6 ADD PUSH2 0x242 JUMP JUMPDEST SWAP2 POP POP SWAP3 SWAP2 POP POP JUMP JUMPDEST PUSH2 0x28D DUP2 PUSH2 0x221 JUMP JUMPDEST DUP3 MSTORE POP POP JUMP JUMPDEST PUSH1 0x0 PUSH1 0x20 DUP3 ADD SWAP1 POP PUSH2 0x2A8 PUSH1 0x0 DUP4 ADD DUP5 PUSH2 0x284 JUMP JUMPDEST SWAP3 SWAP2 POP POP JUMP JUMPDEST PUSH1 0x0 PUSH1 0x1F NOT PUSH1 0x1F DUP4 ADD AND SWAP1 POP SWAP2 SWAP1 POP JUMP JUMPDEST PUSH32 0x4E487B7100000000000000000000000000000000000000000000000000000000 PUSH1 0x0 MSTORE PUSH1 0x41 PUSH1 0x4 MSTORE PUSH1 0x24 PUSH1 0x0 REVERT JUMPDEST PUSH2 0x2F7 DUP3 PUSH2 0x2AE JUMP JUMPDEST DUP2 ADD DUP2 DUP2 LT PUSH8 0xFFFFFFFFFFFFFFFF DUP3 GT OR ISZERO PUSH2 0x316 JUMPI PUSH2 0x315 PUSH2 0x2BF JUMP JUMPDEST JUMPDEST DUP1 PUSH1 0x40 MSTORE POP POP POP JUMP JUMPDEST PUSH1 0x0 PUSH2 0x329 PUSH2 0x15B JUMP JUMPDEST SWAP1 POP PUSH2 0x335 DUP3 DUP3 PUSH2 0x2EE JUMP JUMPDEST SWAP2 SWAP1 POP JUMP JUMPDEST PUSH1 0x0 PUSH8 0xFFFFFFFFFFFFFFFF DUP3 GT ISZERO PUSH2 0x355 JUMPI PUSH2 0x354 PUSH2 0x2BF JUMP JUMPDEST JUMPDEST PUSH1 0x20 DUP3 MUL SWAP1 POP PUSH1 0x20 DUP2 ADD SWAP1 POP SWAP2 SWAP1 POP JUMP JUMPDEST PUSH1 0x0 PUSH2 0x379 PUSH2 0x374 DUP5 PUSH2 0x33A JUMP JUMPDEST PUSH2 0x31F JUMP JUMPDEST SWAP1 POP DUP1 DUP4 DUP3 MSTORE PUSH1 0x20 DUP3 ADD SWAP1 POP PUSH1 0x20 DUP5 MUL DUP4 ADD DUP6 DUP2 GT ISZERO PUSH2 0x39C JUMPI PUSH2 0x39B PUSH2 0x179 JUMP JUMPDEST JUMPDEST DUP4 JUMPDEST DUP2 DUP2 LT ISZERO PUSH2 0x3C5 JUMPI DUP1 PUSH2 0x3B1 DUP9 DUP3 PUSH2 0x242 JUMP JUMPDEST DUP5 MSTORE PUSH1 0x20 DUP5 ADD SWAP4 POP POP PUSH1 0x20 DUP2 ADD SWAP1 POP PUSH2 0x39E JUMP JUMPDEST POP POP POP SWAP4 SWAP3 POP POP POP JUMP JUMPDEST PUSH1 0x0 DUP3 PUSH1 0x1F DUP4 ADD SLT PUSH2 0x3E4 JUMPI PUSH2 0x3E3 PUSH2 0x16F JUMP JUMPDEST JUMPDEST DUP2 CALLDATALOAD PUSH2 0x3F4 DUP5 DUP3 PUSH1 0x20 DUP7 ADD PUSH2 0x366 JUMP JUMPDEST SWAP2 POP POP SWAP3 SWAP2 POP POP JUMP JUMPDEST PUSH1 0x0 PUSH1 0x20 DUP3 DUP5 SUB SLT ISZERO PUSH2 0x413 JUMPI PUSH2 0x412 PUSH2 0x165 JUMP JUMPDEST JUMPDEST PUSH1 0x0 DUP3 ADD CALLDATALOAD PUSH8 0xFFFFFFFFFFFFFFFF DUP2 GT ISZERO PUSH2 0x431 JUMPI PUSH2 0x430 PUSH2 0x16A JUMP JUMPDEST JUMPDEST PUSH2 0x43D DUP5 DUP3 DUP6 ADD PUSH2 0x3CF JUMP JUMPDEST SWAP2 POP POP SWAP3 SWAP2 POP POP JUMP JUMPDEST PUSH1 0x0 DUP2 MLOAD SWAP1 POP SWAP2 SWAP1 POP JUMP JUMPDEST PUSH1 0x0 DUP3 DUP3 MSTORE PUSH1 0x20 DUP3 ADD SWAP1 POP SWAP3 SWAP2 POP POP JUMP JUMPDEST PUSH1 0x0 DUP2 SWAP1 POP PUSH1 0x20 DUP3 ADD SWAP1 POP SWAP2 SWAP1 POP JUMP JUMPDEST PUSH2 0x47B DUP2 PUSH2 0x221 JUMP JUMPDEST DUP3 MSTORE POP POP JUMP JUMPDEST PUSH1 0x0 PUSH2 0x48D DUP4 DUP4 PUSH2 0x472 JUMP JUMPDEST PUSH1 0x20 DUP4 ADD SWAP1 POP SWAP3 SWAP2 POP POP JUMP JUMPDEST PUSH1 0x0 PUSH1 0x20 DUP3 ADD SWAP1 POP SWAP2 SWAP1 POP JUMP JUMPDEST PUSH1 0x0 PUSH2 0x4B1 DUP3 PUSH2 0x446 JUMP JUMPDEST PUSH2 0x4BB DUP2 DUP6 PUSH2 0x451 JUMP JUMPDEST SWAP4 POP PUSH2 0x4C6 DUP4 PUSH2 0x462 JUMP JUMPDEST DUP1 PUSH1 0x0 JUMPDEST DUP4 DUP2 LT ISZERO PUSH2 0x4F7 JUMPI DUP2 MLOAD PUSH2 0x4DE DUP9 DUP3 PUSH2 0x481 JUMP JUMPDEST SWAP8 POP PUSH2 0x4E9 DUP4 PUSH2 0x499 JUMP JUMPDEST SWAP3 POP POP PUSH1 0x1 DUP2 ADD SWAP1 POP PUSH2 0x4CA JUMP JUMPDEST POP DUP6 SWAP4 POP POP POP POP SWAP3 SWAP2 POP POP JUMP JUMPDEST PUSH1 0x0 PUSH1 0x20 DUP3 ADD SWAP1 POP DUP2 DUP2 SUB PUSH1 0x0 DUP4 ADD MSTORE PUSH2 0x51E DUP2 DUP5 PUSH2 0x4A6 JUMP JUMPDEST SWAP1 POP SWAP3 SWAP2 POP POP JUMP INVALID LOG2 PUSH5 0x6970667358 0x22 SLT KECCAK256 POP 0x24 BYTE 0xC 0xAB REVERT 0x29 PUSH12 0x2182A4DFA4FEB79B65B7B19A EXTCODECOPY PUSH25 0x9146177742381CC5302E64736F6C634300080A003300000000 "
		},
		"gasEstimates": {
			"creation": {
				"codeDepositCost": "274400",
				"executionCost": "312",
				"totalCost": "274712"
			},
			"external": {
				"arr(uint256)": "infinite",
				"f()": "381",
				"g(uint256[])": "infinite",
				"h(uint256[])": "474"
			},
			"internal": {
				"_f(uint256[] storage pointer,mapping(uint256 => address),struct DataLocations.MyStruct storage pointer)": "15"
			}
		},
		"methodIdentifiers": {
			"arr(uint256)": "71e5ee5f",
			"f()": "26121ff0",
			"g(uint256[])": "baf71609",
			"h(uint256[])": "40dcbb08"
		}
	},
	"abi": [
		{
			"inputs": [
				{
					"internalType": "uint256",
					"name": "",
					"type": "uint256"
				}
			],
			"name": "arr",
			"outputs": [
				{
					"internalType": "uint256",
					"name": "",
					"type": "uint256"
				}
			],
			"stateMutability": "view",
			"type": "function"
		},
		{
			"inputs": [],
			"name": "f",
			"outputs": [],
			"stateMutability": "nonpayable",
			"type": "function"
		},
		{
			"inputs": [
				{
					"internalType": "uint256[]",
					"name": "_arr",
					"type": "uint256[]"
				}
			],
			"name": "g",
			"outputs": [
				{
					"internalType": "uint256[]",
					"name": "",
					"type": "uint256[]"
				}
			],
			"stateMutability": "nonpayable",
			"type": "function"
		},
		{
			"inputs": [
				{
					"internalType": "uint256[]",
					"name": "_arr",
					"type": "uint256[]"
				}
			],
			"name": "h",
			"outputs": [],
			"stateMutability": "nonpayable",
			"type": "function"
		}
	]
}