{
	"10_loop/loop.sol": {
		"Loop": {
			"abi": [
				{
					"inputs": [],
					"name": "loop",
					"outputs": [],
					"stateMutability": "pure",
					"type": "function"
				}
			],
			"devdoc": {
				"kind": "dev",
				"methods": {},
				"version": 1
			},
			"evm": {
				"assembly": "    /* \"10_loop/loop.sol\":61:314  contract Loop {... */\n  mstore(0x40, 0x80)\n  callvalue\n  dup1\n  iszero\n  tag_1\n  jumpi\n  0x00\n  dup1\n  revert\ntag_1:\n  pop\n  dataSize(sub_0)\n  dup1\n  dataOffset(sub_0)\n  0x00\n  codecopy\n  0x00\n  return\nstop\n\nsub_0: assembly {\n        /* \"10_loop/loop.sol\":61:314  contract Loop {... */\n      mstore(0x40, 0x80)\n      callvalue\n      dup1\n      iszero\n      tag_1\n      jumpi\n      0x00\n      dup1\n      revert\n    tag_1:\n      pop\n      jumpi(tag_2, lt(calldatasize, 0x04))\n      shr(0xe0, calldataload(0x00))\n      dup1\n      0xa92100cb\n      eq\n      tag_3\n      jumpi\n    tag_2:\n      0x00\n      dup1\n      revert\n        /* \"10_loop/loop.sol\":82:311  function loop() public pure{... */\n    tag_3:\n      tag_4\n      tag_5\n      jump\t// in\n    tag_4:\n      stop\n    tag_5:\n        /* \"10_loop/loop.sol\":125:131  uint i */\n      0x00\n        /* \"10_loop/loop.sol\":120:228  for (uint i = 0; i < 10; i++) {... */\n    tag_7:\n        /* \"10_loop/loop.sol\":141:143  10 */\n      0x0a\n        /* \"10_loop/loop.sol\":137:138  i */\n      dup2\n        /* \"10_loop/loop.sol\":137:143  i < 10 */\n      lt\n        /* \"10_loop/loop.sol\":120:228  for (uint i = 0; i < 10; i++) {... */\n      iszero\n      tag_8\n      jumpi\n        /* \"10_loop/loop.sol\":174:175  5 */\n      0x05\n        /* \"10_loop/loop.sol\":169:170  i */\n      dup2\n        /* \"10_loop/loop.sol\":169:175  i == 5 */\n      eq\n        /* \"10_loop/loop.sol\":165:217  if (i == 5) {... */\n      iszero\n      tag_10\n      jumpi\n        /* \"10_loop/loop.sol\":196:201  break */\n      jump(tag_8)\n        /* \"10_loop/loop.sol\":165:217  if (i == 5) {... */\n    tag_10:\n        /* \"10_loop/loop.sol\":145:148  i++ */\n      dup1\n      dup1\n      tag_11\n      swap1\n      tag_12\n      jump\t// in\n    tag_11:\n      swap2\n      pop\n      pop\n        /* \"10_loop/loop.sol\":120:228  for (uint i = 0; i < 10; i++) {... */\n      jump(tag_7)\n    tag_8:\n      pop\n        /* \"10_loop/loop.sol\":238:244  uint j */\n      0x00\n        /* \"10_loop/loop.sol\":259:304  while (j < 10) {... */\n    tag_13:\n        /* \"10_loop/loop.sol\":270:272  10 */\n      0x0a\n        /* \"10_loop/loop.sol\":266:267  j */\n      dup2\n        /* \"10_loop/loop.sol\":266:272  j < 10 */\n      lt\n        /* \"10_loop/loop.sol\":259:304  while (j < 10) {... */\n      iszero\n      tag_14\n      jumpi\n        /* \"10_loop/loop.sol\":289:292  j++ */\n      dup1\n      dup1\n      tag_15\n      swap1\n      tag_12\n      jump\t// in\n    tag_15:\n      swap2\n      pop\n      pop\n        /* \"10_loop/loop.sol\":259:304  while (j < 10) {... */\n      jump(tag_13)\n    tag_14:\n        /* \"10_loop/loop.sol\":109:311  {... */\n      pop\n        /* \"10_loop/loop.sol\":82:311  function loop() public pure{... */\n      jump\t// out\n        /* \"#utility.yul\":7:187   */\n    tag_16:\n        /* \"#utility.yul\":55:132   */\n      0x4e487b7100000000000000000000000000000000000000000000000000000000\n        /* \"#utility.yul\":52:53   */\n      0x00\n        /* \"#utility.yul\":45:133   */\n      mstore\n        /* \"#utility.yul\":152:156   */\n      0x11\n        /* \"#utility.yul\":149:150   */\n      0x04\n        /* \"#utility.yul\":142:157   */\n      mstore\n        /* \"#utility.yul\":176:180   */\n      0x24\n        /* \"#utility.yul\":173:174   */\n      0x00\n        /* \"#utility.yul\":166:181   */\n      revert\n        /* \"#utility.yul\":193:270   */\n    tag_17:\n        /* \"#utility.yul\":230:237   */\n      0x00\n        /* \"#utility.yul\":259:264   */\n      dup2\n        /* \"#utility.yul\":248:264   */\n      swap1\n      pop\n        /* \"#utility.yul\":193:270   */\n      swap2\n      swap1\n      pop\n      jump\t// out\n        /* \"#utility.yul\":276:509   */\n    tag_12:\n        /* \"#utility.yul\":315:318   */\n      0x00\n        /* \"#utility.yul\":338:362   */\n      tag_22\n        /* \"#utility.yul\":356:361   */\n      dup3\n        /* \"#utility.yul\":338:362   */\n      tag_17\n      jump\t// in\n    tag_22:\n        /* \"#utility.yul\":329:362   */\n      swap2\n      pop\n        /* \"#utility.yul\":384:450   */\n      0xffffffffffffffffffffffffffffffffffffffffffffffffffffffffffffffff\n        /* \"#utility.yul\":377:382   */\n      dup3\n        /* \"#utility.yul\":374:451   */\n      eq\n        /* \"#utility.yul\":371:474   */\n      iszero\n      tag_23\n      jumpi\n        /* \"#utility.yul\":454:472   */\n      tag_24\n      tag_16\n      jump\t// in\n    tag_24:\n        /* \"#utility.yul\":371:474   */\n    tag_23:\n        /* \"#utility.yul\":501:502   */\n      0x01\n        /* \"#utility.yul\":494:499   */\n      dup3\n        /* \"#utility.yul\":490:503   */\n      add\n        /* \"#utility.yul\":483:503   */\n      swap1\n      pop\n        /* \"#utility.yul\":276:509   */\n      swap2\n      swap1\n      pop\n      jump\t// out\n\n    auxdata: 0xa26469706673582212202326400b2e2ea59fe993ea662b7aec9b18a02a628ae8225427caca41f26feb0764736f6c634300080a0033\n}\n",
				"bytecode": {
					"linkReferences": {},
					"object": "608060405234801561001057600080fd5b5061012e806100206000396000f3fe6080604052348015600f57600080fd5b506004361060285760003560e01c8063a92100cb14602d575b600080fd5b60336035565b005b60005b600a811015605c576005811415604c57605c565b808060559060b4565b9150506038565b5060005b600a811015607857808060719060b4565b9150506060565b50565b7f4e487b7100000000000000000000000000000000000000000000000000000000600052601160045260246000fd5b6000819050919050565b600060bd8260aa565b91507fffffffffffffffffffffffffffffffffffffffffffffffffffffffffffffffff82141560ed5760ec607b565b5b60018201905091905056fea26469706673582212202326400b2e2ea59fe993ea662b7aec9b18a02a628ae8225427caca41f26feb0764736f6c634300080a0033",
					"opcodes": "PUSH1 0x80 PUSH1 0x40 MSTORE CALLVALUE DUP1 ISZERO PUSH2 0x10 JUMPI PUSH1 0x0 DUP1 REVERT JUMPDEST POP PUSH2 0x12E DUP1 PUSH2 0x20 PUSH1 0x0 CODECOPY PUSH1 0x0 RETURN INVALID PUSH1 0x80 PUSH1 0x40 MSTORE CALLVALUE DUP1 ISZERO PUSH1 0xF JUMPI PUSH1 0x0 DUP1 REVERT JUMPDEST POP PUSH1 0x4 CALLDATASIZE LT PUSH1 0x28 JUMPI PUSH1 0x0 CALLDATALOAD PUSH1 0xE0 SHR DUP1 PUSH4 0xA92100CB EQ PUSH1 0x2D JUMPI JUMPDEST PUSH1 0x0 DUP1 REVERT JUMPDEST PUSH1 0x33 PUSH1 0x35 JUMP JUMPDEST STOP JUMPDEST PUSH1 0x0 JUMPDEST PUSH1 0xA DUP2 LT ISZERO PUSH1 0x5C JUMPI PUSH1 0x5 DUP2 EQ ISZERO PUSH1 0x4C JUMPI PUSH1 0x5C JUMP JUMPDEST DUP1 DUP1 PUSH1 0x55 SWAP1 PUSH1 0xB4 JUMP JUMPDEST SWAP2 POP POP PUSH1 0x38 JUMP JUMPDEST POP PUSH1 0x0 JUMPDEST PUSH1 0xA DUP2 LT ISZERO PUSH1 0x78 JUMPI DUP1 DUP1 PUSH1 0x71 SWAP1 PUSH1 0xB4 JUMP JUMPDEST SWAP2 POP POP PUSH1 0x60 JUMP JUMPDEST POP JUMP JUMPDEST PUSH32 0x4E487B7100000000000000000000000000000000000000000000000000000000 PUSH1 0x0 MSTORE PUSH1 0x11 PUSH1 0x4 MSTORE PUSH1 0x24 PUSH1 0x0 REVERT JUMPDEST PUSH1 0x0 DUP2 SWAP1 POP SWAP2 SWAP1 POP JUMP JUMPDEST PUSH1 0x0 PUSH1 0xBD DUP3 PUSH1 0xAA JUMP JUMPDEST SWAP2 POP PUSH32 0xFFFFFFFFFFFFFFFFFFFFFFFFFFFFFFFFFFFFFFFFFFFFFFFFFFFFFFFFFFFFFFFF DUP3 EQ ISZERO PUSH1 0xED JUMPI PUSH1 0xEC PUSH1 0x7B JUMP JUMPDEST JUMPDEST PUSH1 0x1 DUP3 ADD SWAP1 POP SWAP2 SWAP1 POP JUMP INVALID LOG2 PUSH5 0x6970667358 0x22 SLT KECCAK256 0x23 0x26 BLOCKHASH SIGNEXTEND 0x2E 0x2E 0xA5 SWAP16 0xE9 SWAP4 0xEA PUSH7 0x2B7AEC9B18A02A PUSH3 0x8AE822 SLOAD 0x27 0xCA 0xCA COINBASE CALLCODE PUSH16 0xEB0764736F6C634300080A0033000000 "
				},
				"gasEstimates": {
					"creation": {
						"codeDepositCost": "60400",
						"executionCost": "111",
						"totalCost": "60511"
					},
					"external": {
						"loop()": "infinite"
					}
				},
				"methodIdentifiers": {
					"loop()": "a92100cb"
				}
			},
			"storageLayout": {
				"storage": [],
				"types": null
			},
			"userdoc": {
				"kind": "user",
				"methods": {},
				"version": 1
			}
		}
	}
}